:100000000C94A3000C94CB000C94CB000C94CB006C
:100010000C94CB000C94CB000C94CB000C94CB0034
:100020000C94CB000C94CB000C94CB000C94CB0024
:100030000C94CB000C94CB000C94CB000C94CB0014
:100040000C9453050C94CB000C94C3050C949D05A3
:100050000C94CB000C94CB000C94CB000C94CB00F4
:100060000C94CB000C94CB0007634236B79BD8A707
:100070001A39685618AEBAAB558C1D3CB7CC5763CD
:10008000BD6DEDFD753EF6177231BF000000803F7B
:1000900008000000BE922449123EABAAAA2ABECD97
:1000A000CCCC4C3E00000080BEABAAAAAA3E000009
:1000B0000000BF000000803F000000000008417801
:1000C000D3BB4387D1133D190E3CC3BD4282AD2B38
:1000D0003E68EC8276BED98FE1A93E4C80EFFFBE30
:1000E00001C4FF7F3F00000000000000000024006A
:1000F00027002A0000000000250028002B00000037
:10010000000023002600290004040404040404045D
:1001100002020202020203030303030301020408B2
:100120001020408001020408102001020408102061
:1001300000000008000201000003040700000000A6
:1001400000000000E00A11241FBECFEFD8E0DEBFA0
:10015000CDBF11E0A0E0B1E0E2EDF0E202C0059019
:100160000D92AA32B107D9F722E0AAE2B1E001C0AC
:100170001D92AA3BB207E1F710E0C3EAD0E004C049
:100180002197FE010E94710BC23AD107C9F70E9464
:10019000F5050C9467100C940000662321F1109271
:1001A0001302109214021092150210921602E7E147
:1001B000F2E0119211921192119222E0E739F207C6
:1001C000C1F7AC0170E060E0709560955095419585
:1001D0005F4F6F4F7F4F4093970250939802609309
:1001E000990270939A02E091F801F091F901EC56AE
:1001F000FF4F30E020E040919B024217130609F0C8
:100200000CF40895A901480F591FDF01A458B10942
:100210001D921D921D921C92139714961D921D9271
:100220001D921D92EA17FB07C9F770E060E0709518
:100230006095509541955F4F6F4F7F4F408351833D
:10024000628373832F5F3F4FEA55FF4FD4CF2F92C6
:100250003F924F925F926F927F928F929F92AF9256
:10026000BF92CF92DF92EF92FF920F931F93CF93A3
:10027000DF9300D000D0CDB7DEB79C838B831B010A
:100280005A834983FC0180819181A281B381181630
:1002900019061A061B060CF089C0FA0180819181AB
:1002A000A281B381892B8A2B8B2B09F48EC0F1019B
:1002B00080819181A281B381E981FA8180839183D8
:1002C000A283B383EB81FC81C080D180E280F38084
:1002D000C701B6012DE133EF41E050E00E941D0B54
:1002E00049015A0163EE7CE08EEF9FEF0E940D0BF7
:1002F0009B01AC012C0D3D1D4E1D5F1DA7EAB1E415
:100300000E943C0B6B017C01ACEEB4EFA5019401A3
:100310000E944A0BC60ED71EE81EF91EF7FCC2C08B
:10032000EB81FC81C082D182E282F382E981FA8191
:10033000608171818281938120E030E040E054E06F
:100340000E941D0BF901EE0FFF1FEE0FFF1F2E0E77
:100350003F1EF10180819181A281B381E981FA81FF
:1003600080839183A283B383EB81FC81808191811F
:10037000A281B381F10180839183A283B3830F9023
:100380000F900F900F90DF91CF911F910F91FF90E1
:10039000EF90DF90CF90BF90AF909F908F907F9025
:1003A0006F905F904F903F902F9008950097A10518
:1003B000B10509F066C081E090E0A0E0B0E0EB811B
:1003C000FC8180839183A283B383810104561F4FF4
:1003D00097E2892E912CA12CB12CEB81FC81C0805D
:1003E000D180E280F380C701B6012DE133EF41E017
:1003F00050E00E941D0B29013A0163EE7CE08EEF74
:100400009FEF0E940D0B9B01AC012C0D3D1D4E1D5D
:100410005F1DA7EAB1E40E943C0B6B017C01ACEECE
:10042000B4EFA30192010E944A0BC60ED71EE81E2C
:10043000F91EF7FC30C0EB81FC81C082D182E282E0
:10044000F382F0E28F169104A104B1045CF4EB8115
:10045000FC8180819181A281B381F80180839183A5
:10046000A283B383F1E08F1A9108A108B108045068
:1004700011098FEF88169806A806B80609F0ADCFC7
:1004800016CFB7FFA2CFB095A095909581959F4FBD
:10049000AF4FBF4F94CFF1E0CF1AD108E108F0E899
:1004A000FF0AC9CFC701B60161507109810990489F
:1004B000EB81FC81608371838283938337CF0F93B9
:1004C0001F93CF93DF938C01CB01F8011482158227
:1004D00016821782E8012896980128573F4FBE01DF
:1004E0001992199219921992C217D307C9F7B0E05D
:1004F000A0E0B095A095909581959F4FAF4FBF4FCD
:1005000088839983AA83BB83A8014C5F5F4FCE0188
:100510000E942701888199819370F80191838083DB
:10052000128281E08383DF91CF911F910F91089513
:10053000833081F028F4813099F08230A9F0089559
:100540008730A9F08830C9F08430B1F48091800000
:100550008F7D03C0809180008F7780938000089505
:1005600084B58F7784BD089584B58F7DFBCF80914E
:10057000B0008F778093B00008958091B0008F7D98
:10058000F9CFCF93DF93282F30E0F901E05DFE4FE4
:100590008491F901E45EFE4FD491F901E85FFE4FCA
:1005A000C491CC23A1F081110E949802EC2FF0E0BD
:1005B000EE0FFF1FE250FF4FA591B491EC91ED2398
:1005C00081E090E009F480E0DF91CF91089580E030
:1005D00090E0FACF1F93CF93DF93282F30E0F901FB
:1005E000E05DFE4F8491F901E45EFE4FD491F90184
:1005F000E85FFE4FC491CC23A9F0162F81110E9411
:100600009802EC2FF0E0EE0FFF1FEC50FF4FA5918A
:10061000B4918FB7F894EC91111108C0D095DE23F6
:10062000DC938FBFDF91CF911F910895DE2BF8CF20
:10063000CF93DF9390E0FC01E45EFE4F2491885F4E
:100640009E4FFC0184918823C9F090E0880F991F88
:10065000FC01E651FF4FA591B491FC01EC50FF4F16
:10066000C591D49161110DC09FB7F8948C912095DC
:1006700082238C938881282328839FBFDF91CF9189
:100680000895623051F49FB7F8943C91822F809581
:1006900083238C93E8812E2BEFCF8FB7F894EC91C6
:1006A0002E2B2C938FBFEACF1F93CF93DF93182F5E
:1006B000EB0161E00E941803209739F460E0812F7C
:1006C000DF91CF911F910C94EA02CF3FD10511F435
:1006D00061E0F5CFE12FF0E0E05DFE4FE491E33023
:1006E00031F140F4E130B1F0E230E1F0C038D10551
:1006F0007CF7E4CFE73029F1E83059F1E430B1F785
:1007000080918000806280938000D0938B00C093A2
:100710008A0004C084B5806884BDC7BDDF91CF91D5
:100720001F91089584B5806284BDC8BDF7CF8091C4
:100730008000806880938000D0938900C0938800F7
:10074000EDCF8091B00080688093B000C093B3007B
:10075000E5CF8091B00080628093B000C093B40078
:10076000DDCF8E3008F08E508770806480937C00DF
:1007700080917A00806480937A0080917A0086FD6F
:10078000FCCF809178009091790008956F927F92CC
:100790008F929F92AF92BF92CF92DF92EF92FF9291
:1007A0000F931F93CF93DF936B017A01390124EAF2
:1007B000822E22E0922EEC015C0188E0A80EB11C92
:1007C000F40181914F010E94B10389939993CA1555
:1007D000DB05B1F78091AC020E94C102F601918362
:1007E00080838091AD020E94B103F70191838083E1
:1007F0008091AE020E94B103F301918380838091C6
:10080000B2020E94C102F80191838083F7016081E6
:10081000718176956795769567958091B0020E9473
:100820005403F3016081718176956795769567959C
:1008300090E080E00E94990C20E030E04FE753E424
:100840000E94F80B6B017C01AC019B010E94500DD2
:10085000A70196010E94500D20E030E04FE753E4DD
:100860000E94500D0E946A0C8091B102DF91CF91DD
:100870001F910F91FF90EF90DF90CF90BF90AF90BE
:100880009F908F907F906F900C945403AF92BF9283
:10089000CF92DF92EF92FF920F931F93CF93DF934C
:1008A0006C017B018B01040F151FEB015E01AE187B
:1008B000BF08C017D10759F06991D601ED91FC919D
:1008C0000190F081E02DC6010995892B79F7C501CA
:1008D000DF91CF911F910F91FF90EF90DF90CF901C
:1008E000BF90AF900895FC01538D448D252F30E0CB
:1008F000842F90E0821B930B541710F0CF9608952D
:1009000001970895FC01918D828D981761F0A28D59
:10091000AE0FBF2FB11D5D968C91928D9F5F9F731F
:10092000928F90E008958FEF9FEF0895FC01918DD5
:10093000828D981731F0828DE80FF11D858D90E042
:1009400008958FEF9FEF0895FC01918D228D892FDF
:1009500090E0805C9F4F821B91098F7399270895C7
:100960008AE291E00E94A40421E0892B09F420E0AE
:10097000822F089580E090E0892B29F00E94B00436
:1009800081110C9400000895FC01A48DA80FB92FCB
:10099000B11DA35ABF4F2C91848D90E001968F73A7
:1009A0009927848FA689B7892C93A089B1898C91C6
:1009B000837080648C93938D848D981306C0028815
:1009C000F389E02D80818F7D80830895EF92FF92DF
:1009D0000F931F93CF93DF93EC0181E0888F9B8D62
:1009E0008C8D98131AC0E889F989808185FF15C01C
:1009F0009FB7F894EE89FF896083E889F98980813F
:100A00008370806480839FBF81E090E0DF91CF910D
:100A10001F910F91FF90EF900895F62E0B8D10E02F
:100A20000F5F1F4F0F731127E02E8C8D8E110CC09E
:100A30000FB607FCFACFE889F989808185FFF5CFE9
:100A4000CE010E94C404F1CFEB8DEC0FFD2FF11D00
:100A5000E35AFF4FF0829FB7F8940B8FEA89FB8926
:100A600080818062CFCFCF93DF93EC01888D882384
:100A7000B9F0AA89BB89E889F9898C9185FD03C001
:100A8000808186FD0DC00FB607FCF7CF8C9185FFE6
:100A9000F2CF808185FFEDCFCE010E94C404E9CF63
:100AA000DF91CF9108951F920F920FB60F921124EC
:100AB0002F933F938F939F93AF93BF938091F401B4
:100AC0009091F501A091F601B091F7013091F301F9
:100AD00023E0230F2D3758F50196A11DB11D20935A
:100AE000F3018093F4019093F501A093F601B09384
:100AF000F7018091EF019091F001A091F101B09187
:100B0000F2010196A11DB11D8093EF019093F001B8
:100B1000A093F101B093F201BF91AF919F918F919A
:100B20003F912F910F900FBE0F901F90189526E8C0
:100B3000230F0296A11DB11DD2CF1F920F920FB6A7
:100B40000F9211242F933F934F935F936F937F9353
:100B50008F939F93AF93BF93EF93FF938AE291E0BC
:100B60000E94C404FF91EF91BF91AF919F918F912B
:100B70007F916F915F914F913F912F910F900FBE99
:100B80000F901F9018951F920F920FB60F9211247D
:100B90002F938F939F93EF93FF93E0913A01F091FE
:100BA0003B018081E0914001F091410182FD1BC039
:100BB0009081809143018F5F8F7320914401821750
:100BC00041F0E0914301F0E0E65DFE4F958F8093A8
:100BD0004301FF91EF919F918F912F910F900FBE45
:100BE0000F901F9018958081F4CFCF93DF93CDB7EE
:100BF000DEB7AA970FB6F894DEBF0FBECDBF7894CC
:100C000084B5826084BD84B5816084BD85B5826011
:100C100085BD85B5816085BD80916E0081608093C2
:100C20006E0010928100809181008260809381002B
:100C3000809181008160809381008091800081603B
:100C4000809380008091B10084608093B100809196
:100C5000B00081608093B00080917A0084608093BE
:100C60007A0080917A00826080937A0080917A0085
:100C7000816080937A0080917A00806880937A0006
:100C80001092C10082E1E6E0F1E0DE0111960190F0
:100C90000D928A95E1F78E010F5F1F4F7E0145E0AF
:100CA000E40EF11C60E0F80181918F010E941803AD
:100CB00061E0F80183810E941803E016F10691F7C4
:100CC00062E082E00E94180360E081E10E94180364
:100CD00060E082E10E94180361E083E00E94180353
:100CE00061E086E00E94180361E085E00E9418033D
:100CF00060E087E00E94180361E088890E94180381
:100D000061E089890E94180361E08A890E941803C2
:100D100082E1FE013196A4EAB2E001900D928A953B
:100D2000E1F7E0913A01F0913B0182E08083E091AC
:100D30003601F09137011082E0913801F0913901CC
:100D40008FEC808310924201E0913E01F0913F01CF
:100D500086E08083E0913C01F0913D0180818061DB
:100D60008083E0913C01F0913D0180818860808327
:100D7000E0913C01F0913D01808180688083E091A9
:100D80003C01F0913D0180818F7D808384E0C82EFD
:100D9000D12CF12CE12C5E01FBE1AF0EB11C8501E1
:100DA0009E01235E3F4FAE01415E5F4FBE016F5D0E
:100DB0007F4FCE0143960E94C603FE017396EE0C50
:100DC000FF1C8191919181709927E82AF92AAE162A
:100DD000BF06A9F741E0C41AD10809F7F092D8017B
:100DE000E092D70188E992E00E94420F9093F901C6
:100DF0008093F80188E090E00E94420F9093FB01FD
:100E00008093FA011092FD011092FC0183E090E0C2
:100E100090930102809300020CE211E01093FF0115
:100E20000093FE0189E291E0909303028093020215
:100E30008FE291E0909305028093040210920702E2
:100E4000109208021092090210920A0210920602F1
:100E500010920E0210920D0288EE93E090930C0215
:100E600080930B02B7018FE092E00E945F0289E15C
:100E700090E090930C0280930B0284E080939B029D
:100E80008FEF93E090939D0280939C0210939F02BA
:100E900000939E0283E08093A002F092A202E0926F
:100EA000A1021092A302912C812CB12CA12C1CE246
:100EB000C12EDD24D3946091A1027091A202809191
:100EC000A00290E00091F8011091F9010A0D1B1D9C
:100ED000F8011182108295838483D382C2829601A5
:100EE000281B390B37832683845D9E4F918780872B
:100EF000C8010C960E945F02F801E856FF4F10826D
:100F00001182128213823496118210821582148209
:100F1000D382C282D782C682D186C086E091FA018E
:100F2000F091FB01E80DF91D11821082F6EAAF0E77
:100F3000B11C42E0840E911C58E9A51652E0B5069A
:100F400009F0B9CF61E0C7010E94CD006624639427
:100F5000712C0FED11E021EE31E043EE51E065EE32
:100F600071E087EE91E00E94C6032FB7F89480915C
:100F7000F4019091F501A091F601B091F7012FBF16
:100F80002091DD013091DE017C01E21AF30A909399
:100F9000DE018093DD012091E5013091E60101E061
:100FA00010E02130310511F010E000E04091DB014C
:100FB0005091DC01452B11F521303105F9F42091D8
:100FC000D9013091DA012F5F3F4F3093DA0120933E
:100FD000D9014091D7015091D801840F951F65E444
:100FE000629FA001639F500D1124840F951F909361
:100FF000A2028093A10260E00E94CD001093DC0168
:101000000093DB018091E3019091E4012091FC01C8
:101010003091FD01232B09F482C121E030E04091A1
:101020000202509103024817590710F030E020E007
:101030003093FD012093FC010091FC011091FD0112
:101040000115110551F06091A30281E0682780919C
:10105000A1029091A2020E94CD0081E0012B09F42F
:1010600080E08093A3026091E1017091E20190E041
:1010700080E00E94990C20E030EC4FE754E40E949D
:10108000F80B20E030E040E45FE30E94BD0D20E07B
:1010900030EC4FE754E40E94500D0E946A0C5B0153
:1010A0008090FA019090FB010091F8011091F901F4
:1010B00008561F4FD12CC12C80919B028C151D040A
:1010C00011F00CF039C16091E1017091E20190E002
:1010D00080E00E94990C4B015C0160919C02709130
:1010E0009D0290E080E00E94990C9B01AC01C5013B
:1010F000B4010E94F80B4B015C012DEC3CEC4CEC74
:101100005DE30E94F30B87FF31C12DEC3CEC4CEC0E
:101110005DE3C501B4010E94F80B812C912C5401B0
:1011200020E030E040E351E40E94500DA50194011D
:101130000E94870B9B01AC010E94870B4B015C0155
:101140008092070290920802A0920902B0920A02CD
:1011500000910D0210910E020E0D1F1D10930E0234
:1011600000930D02C0900B02D0900C02B70190E0EA
:1011700080E00E94990CA50194010E94500D20E08E
:1011800030E04AE754E40E94F80B9B01AC0160E0B8
:1011900070E080E090E40E94BD0D9B01AC0160E036
:1011A00070E080E89FE30E94F80B9B01AC0160E0D7
:1011B00070E080E89FE30E94860B4B015C01809108
:1011C000110281110FC143E152E067E172E087E94A
:1011D00092E00E942701809197029091980293706B
:1011E0009093100280930F0260910F027091100291
:1011F00090E080E00E94990C20E030E040E85AE363
:101200000E94500D9B01AC01C501B4010E944B0D21
:1012100018166CF4C016D10650F480910602109294
:101220000E0210920D0251E08527809306028091F4
:101230000602882309F4E4C080919C0290919D02EB
:101240009093CE018093CD015FEC252E51E0352E99
:1012500087EE91E098A78FA3912C812C3EA22DA21E
:10126000F12CE12C80919B0290E0E816F9060CF439
:10127000CAC08091DF019091E0010197C1F4809193
:10128000CF019091D0019093C8018093C7018091C4
:10129000D1019091D2019093CA018093C9018091AC
:1012A000D3019091D4019093CC018093CB0188EA33
:1012B000C82E82E0D82E97ECE92E91E0F92E10E0AE
:1012C00000E0F1016081F2E02F0E311CF601819106
:1012D0006F010E94EA020330110531F0F7016081CD
:1012E000F60182850E94EA020F5F1F4FF2E0EF0EC7
:1012F000F11C0430110529F76091CD018091AF02F6
:101300000E94EA0240E050E0452B09F422CE0E9400
:10131000B004882309F41ACE0E94000017CE209151
:101320000402309105022817390708F085CE709223
:10133000FD016092FC0180CE20E030E040E85FE3F8
:10134000F80160817181828193810E94F30B88236F
:1013500039F0F601EE0FFF1FE80DF91DB182A082F2
:10136000FFEFCF1ADF0A0A551F4FA6CE26E636E654
:1013700046E65FE3C501B4010E944B0D1816CCF49C
:1013800026E636E646E65FE3C501B4010E94860B19
:1013900020ED3CEC4CEC5DE30E94F80B812C912C91
:1013A000F0E1AF2EF1E4BF2E20E030E040EC50E45D
:1013B000BBCE2DEC3CEC4CEC5DE3C501B4010E94CE
:1013C000860B20ED3CEC4CE45EE30E94F80B812C94
:1013D000912CE0E3AE2EE1E4BE2E20E030E040E0D0
:1013E00050ECA2CE8091120241E084278093120239
:1013F000882319F08FEF93E0F3CE90E080E0F0CEF9
:1014000090E080E01DCF2DA13EA12F5C31400197DF
:10141000512C412CE816F9063CF4C701880F991F9E
:10142000AC0149535E4F2A018091FA019091FB0172
:10143000FC01E20FF31FFAA7E9A70091F801109150
:10144000F901080D191DEFA1F8A581919191F8A757
:10145000EFA3F80120813181232B09F495C021E00D
:1014600030E0468157814817590710F030E020E0FE
:10147000F80131832083F801C080D180A80148564B
:101480005F4F5CA34BA320E030E0A901EBA1FCA1DE
:1014900060817181828193810E94F30BB12CA12C18
:1014A000811107C091E0C114D10409F490E0A92E84
:1014B000B82EB60190E080E00E94990CEBA1FCA14F
:1014C0006083718382839383AB28C1F0F8018685A2
:1014D000811163C0A801405F5F4FB8016C5E7F4F10
:1014E0005801F4E9AF0EB11CC5010E942701F501B6
:1014F000808191819370F80195878487F801248514
:101500003585E9A5FAA5808191814FEF53E0481B0D
:10151000590BCA01F801E456FF4F5383428364819B
:101520007581461B570B57834683860F971F9187FC
:10153000808760817181672BE9F181E090E042173B
:10154000530710F090E080E0918380838081918147
:1015500030E020E0009709F09601EDA1FEA1219373
:101560003193FEA3EDA34114510439F0892B11F0FE
:10157000D12CC12CF201D182C082FFEFEF1AFF0AF9
:1015800046EA840E911C6ECE2085318528173907D6
:1015900008F071CF718260826ECF8785F1E08F276E
:1015A000F8018787882319F08FEF93E0A4CF90E0AC
:1015B00080E0A1CF8217930748F671826082C6CF80
:1015C000EAE2F1E01382128288EE93E0A0E0B0E05C
:1015D00084839583A683B7838CE191E09183808394
:1015E00085EC90E09587848784EC90E097878687E8
:1015F00080EC90E0918B808B81EC90E0938B828BE0
:1016000082EC90E0958B848B86EC90E0978B868BB8
:10161000118E128E138E148E0895DB018F939F937B
:101620000E943C0BBF91AF91A29F800D911DA39F83
:10163000900DB29F900D11240895052E97FB1EF476
:1016400000940E94340B57FD07D00E944F0B07FCFB
:1016500003D04EF40C94340B509540953095219561
:101660003F4F4F4F5F4F08959095809570956195CE
:101670007F4F8F4F9F4F08950E94770BA59F900D2E
:10168000B49F900DA49F800D911D11240895B7FF64
:101690000C943C0B0E943C0B821B930B0895A1E21F
:1016A0001A2EAA1BBB1BFD010DC0AA1FBB1FEE1FDC
:1016B000FF1FA217B307E407F50720F0A21BB30B27
:1016C000E40BF50B661F771F881F991F1A9469F7A3
:1016D00060957095809590959B01AC01BD01CF01FF
:1016E0000895EE0FFF1F0590F491E02D0994A29F3D
:1016F000B001B39FC001A39F700D811D1124911DE6
:10170000B29F700D811D1124911D08955058BB2763
:10171000AA270E949E0B0C94110D0E94030D38F015
:101720000E940A0D20F039F49F3F19F426F40C941E
:10173000000D0EF4E095E7FB0C94FA0CE92F0E94E3
:10174000220D58F3BA17620773078407950720F034
:1017500079F4A6F50C94440D0EF4E0950B2EBA2FF7
:10176000A02D0B01B90190010C01CA01A0011124A7
:10177000FF27591B99F0593F50F4503E68F11A1653
:10178000F040A22F232F342F4427585FF3CF4695E4
:1017900037952795A795F0405395C9F77EF41F1606
:1017A000BA0B620B730B840BBAF09150A1F0FF0FD0
:1017B000BB1F661F771F881FC2F70EC0BA0F621FBC
:1017C000731F841F48F4879577956795B795F795AC
:1017D0009E3F08F0B0CF9395880F08F09927EE0F41
:1017E0009795879508950E94D60C08F481E0089596
:1017F0000E940C0C0C94110D0E940A0D58F00E94CE
:10180000030D40F029F45F3F29F00C94FA0C5111BC
:101810000C94450D0C94000D0E94220D68F3992341
:10182000B1F3552391F3951B550BBB27AA276217DC
:101830007307840738F09F5F5F4F220F331F441FE9
:10184000AA1FA9F335D00E2E3AF0E0E832D091501D
:101850005040E695001CCAF72BD0FE2F29D0660F0A
:10186000771F881FBB1F261737074807AB07B0E84D
:1018700009F0BB0B802DBF01FF2793585F4F3AF053
:101880009E3F510578F00C94FA0C0C94450D5F3F87
:10189000E4F3983ED4F3869577956795B795F795D9
:1018A0009F5FC9F7880F911D9695879597F90895C1
:1018B000E1E0660F771F881FBB1F6217730784075D
:1018C000BA0720F0621B730B840BBA0BEE1F88F76C
:1018D000E09508950E942A0D88F09F5798F0B92F3F
:1018E0009927B751B0F0E1F0660F771F881F991F55
:1018F0001AF0BA95C9F714C0B13091F00E94440DA6
:10190000B1E008950C94440D672F782F8827B85FB5
:1019100039F0B93FCCF3869577956795B395D9F7AC
:101920003EF490958095709561957F4F8F4F9F4FB6
:101930000895E89409C097FB3EF4909580957095C2
:1019400061957F4F8F4F9F4F9923A9F0F92F96E90B
:10195000BB279395F695879577956795B795F11180
:10196000F8CFFAF4BB0F11F460FF1BC06F5F7F4F1D
:101970008F4F9F4F16C0882311F096E911C077232F
:1019800021F09EE8872F762F05C0662371F096E838
:10199000862F70E060E02AF09A95660F771F881F07
:1019A000DAF7880F9695879597F90895990F0008AB
:1019B000550FAA0BE0E8FEEF16161706E807F90721
:1019C000C0F012161306E407F50798F0621B730BBC
:1019D000840B950B39F40A2661F0232B242B252B3D
:1019E00021F408950A2609F4A140A6958FEF811DE0
:1019F000811D089597F99F6780E870E060E0089581
:101A00009FEF80EC089500240A9416161706180616
:101A10000906089500240A941216130614060506F2
:101A20000895092E0394000C11F4882352F0BB0F83
:101A300040F4BF2B11F460FF04C06F5F7F4F8F4FE6
:101A40009F4F089557FD9058440F551F59F05F3F21
:101A500071F04795880F97FB991F61F09F3F79F0D0
:101A600087950895121613061406551FF2CF469552
:101A7000F1DF08C0161617061806991FF1CF8695D4
:101A80007105610508940895E894BB2766277727B8
:101A9000CB0197F908950E94D60C08F48FEF0895B2
:101AA0000E94630D0C94110D0E94030D38F00E94EA
:101AB0000A0D20F0952311F00C94FA0C0C94000DF3
:101AC00011240C94450D0E94220D70F3959FC1F3D3
:101AD000950F50E0551F629FF001729FBB27F00DDC
:101AE000B11D639FAA27F00DB11DAA1F649F662731
:101AF000B00DA11D661F829F2227B00DA11D621F80
:101B0000739FB00DA11D621F839FA00D611D221F39
:101B1000749F3327A00D611D231F849F600D211D1D
:101B2000822F762F6A2F11249F5750409AF0F1F0A0
:101B300088234AF0EE0FFF1FBB1F661F771F881F09
:101B400091505040A9F79E3F510580F00C94FA0C3B
:101B50000C94450D5F3FE4F3983ED4F3869577955A
:101B60006795B795F795E7959F5FC1F7FE2B880FAF
:101B7000911D9695879597F90895FA01EE0FFF1F2D
:101B8000309621053105A1F16115710561F48038A8
:101B9000BFE39B0749F168949038810561F0803874
:101BA000BFEF9B0741F099234AF5FF3FE10531055F
:101BB000210519F1E8940894E795D901AA2329F49D
:101BC000AB2FBE2FF85FD0F310C0FF5F70F4A69567
:101BD000E0F7F73950F019F0FF3A38F49F779F9308
:101BE0000DD00F9007FC9058089546F00C94000D0E
:101BF00060E070E080E89FE308954FE79F775F9390
:101C00004F933F932F930E94B80E2F913F914F9186
:101C10005F910E94500D0C94150E29F416F00C944F
:101C2000FA0C0C94440D0C94000D0E942A0DA8F39C
:101C30009638A0F707F80F92E8942BE33AEA48EBBE
:101C40005FE70E94660D0F920F920F924DB75EB73D
:101C50000F920E94000FE8E6F0E00E94470E4F91BD
:101C60005F91EF91FF91E595EE1FFF1F49F0FE5741
:101C7000E0684427EE0F441FFA95E1F74195550BB4
:101C80000E947A0E0F9007FE0C946E0E0895DF935B
:101C9000CF931F930F93FF92EF92DF927B018C0102
:101CA000689406C0DA2EEF010E94630DFE01E894ED
:101CB000A5912591359145915591A6F3EF010E948B
:101CC0009E0BFE019701A801DA9469F7DF90EF906F
:101CD000FF900F911F91CF91DF9108959B01AC016F
:101CE00060E070E080E89FE30C94F80B0C94FA0C31
:101CF0000C94340F0E942A0DD8F39923C9F3940F42
:101D0000511DA3F39150504094F059F0882332F0C4
:101D1000660F771F881F91505040C1F79E3F5105B5
:101D20002CF7880F911D9695879597F908955F3F39
:101D3000ACF0983E9CF0BB27869577956795B79554
:101D400008F4B1609395C1F7BB0F58F711F460FF29
:101D5000E8CF6F5F7F4F8F4F9F4FE3CF0C94450DC0
:101D600016F00C94340F0C94000D68940C94FA0C3B
:101D70000E942A0DA8F39923C1F3AEF3DF93CF930A
:101D80001F930F93FF92C92FDD2788232AF02197F5
:101D9000660F771F881FDAF720E030E040E85FEB3E
:101DA0009FE3883920F0803E38F021968F770E949B
:101DB000870BE0E9F0E004C00E94870BEDEBF0E058
:101DC0000E94470E8B01BE01EC01FB2E6F5771097B
:101DD0007595771F880B990B0E949B0C28E132E7C1
:101DE00041E35FE30E94630DAF2D9801AE01FF90C8
:101DF0000F911F91CF91DF910E949E0B0C94110DBA
:101E0000FA01DC01AA0FBB1F9B01AC01BF5728F4EC
:101E1000222733274427507820C0B75190F4AB2FA6
:101E20000024469537952795011CA395D2F30020F1
:101E300071F0220F331F441FB395DAF30ED00C94C8
:101E4000860B61307105A0E88A07B94630F49B0122
:101E5000AC016627772788279078309621F0208379
:101E600031834283538308959F3F31F0915020F492
:101E7000879577956795B795880F911D9695879566
:101E800097F908950F931F93CF93DF9382309105B5
:101E900010F482E090E0E091B802F091B90230E0F5
:101EA00020E0B0E0A0E0309799F42115310509F465
:101EB0004AC0281B390B24303105D8F58A819B8113
:101EC0006115710589F1FB0193838283FE0111C0C5
:101ED000408151810281138148175907E0F048176A
:101EE000590799F4109761F012960C931297139674
:101EF0001C933296CF01DF91CF911F910F910895DE
:101F00000093B8021093B902F4CF2115310551F0B6
:101F10004217530738F0A901DB019A01BD01DF0127
:101F2000F801C1CFEF01F9CF9093B9028093B802C5
:101F3000CDCFFE01E20FF31F81939193225031091F
:101F400039832883D7CF2091B6023091B702232B53
:101F500041F420910201309103013093B7022093A4
:101F6000B60220910001309101012115310541F4A3
:101F70002DB73EB74091040150910501241B350B4C
:101F8000E091B602F091B702E217F307A0F42E1B1E
:101F90003F0B2817390778F0AC014E5F5F4F2417CD
:101FA000350748F04E0F5F1F5093B7024093B602BB
:101FB000819391939FCFF0E0E0E09CCFCF93DF93AC
:101FC0000097E9F0FC01329713821282A091B802C7
:101FD000B091B902ED0130E020E01097A1F420812A
:101FE0003181820F931F2091B6023091B7022817DA
:101FF000390709F061C0F093B702E093B602DF91B0
:10200000CF910895EA01CE17DF07E8F54A815B8199
:102010009E0141155105B1F7E901FB83EA8349911E
:102020005991C40FD51FEC17FD0761F48081918190
:102030000296840F951FE901998388838281938199
:102040009B838A83F0E0E0E012968D919C91139738
:102050000097B9F52D913C911197CD010296820F11
:10206000931F2091B6023091B7022817390739F62D
:10207000309751F51092B9021092B802B093B7029E
:10208000A093B602BCCFD383C28340815181840F19
:10209000951FC817D90761F44E5F5F4F88819981FA
:1020A000480F591F518340838A819B819383828388
:1020B0002115310509F0B0CFF093B902E093B802D1
:1020C0009ECFFD01DC01C0CF13821282D7CFF894DE
:0220D000FFCF40
:1020D2000000BA028000130E0F10040C0A0802114D
:1020E20012030605070D0B0900000000E604460472
:0A20F20073043305A404820496046D
:00000001FF
