:100000000C9461000C947E000C947E000C947E0095
:100010000C947E000C947E000C947E000C947E0068
:100020000C947E000C947E000C947E000C947E0058
:100030000C947E000C947E000C947E000C947E0048
:100040000C94F3030C947E000C947E000C947E00C0
:100050000C947E000C947E000C947E000C947E0028
:100060000C947E000C947E00000000002400270009
:100070002A0000000000250028002B0004040404CE
:100080000404040402020202020203030303030342
:10009000020203000000090003020000040508003A
:1000A0000000000000000000000001020408102011
:1000B0004080010204081020010204081020408042
:1000C000400011241FBECFEFD4E0DEBFCDBF11E052
:1000D000A0E0B1E0E8EEF6E102C005900D92A43197
:1000E000B107D9F724E0A4E1B1E001C01D92AB391A
:1000F000B207E1F70E943D040C94720B0C940000CF
:10010000CF93DF93662321F11092F2031092F30351
:100110001092F4031092F503E6EFF3E011921192BE
:100120001192119224E0E637F207C1F7AC0170E0BA
:1001300060E070956095509541955F4F6F4F7F4F90
:100140004093760450937704609378047093790415
:100150002091CA033091CB03A0E0B4EA40917A0425
:10016000A4171CF0DF91CF9108956A2F0A2E000C7E
:10017000770BAC01460F571FB69FF001B79FF00DEC
:100180001124E20FF31F1786108A118A128AEF01D9
:100190006396ED56FF4F1992199219921992EC1726
:1001A000FD07C9F770E060E0709560955095419546
:1001B0005F4F6F4F7F4F4083518362837383AF5F85
:1001C000CDCF90E0FC01ED56FF4F2491FC01E655A8
:1001D000FF4F3491FC01E458FF4FE491EE23C9F046
:1001E000222339F0243001F1A8F4223069F12330C0
:1001F00079F1F0E0EE0FFF1FEE58FF4FA591B4919B
:100200008FB7F894EC91611126C030953E233C9352
:100210008FBF0895283071F0293091F0253049F7CB
:10022000809180008F7D03C0809180008F778093C4
:100230008000DFCF8091B0008F778093B000D9CF5E
:100240008091B0008F7DF9CF84B58F7784BDD1CFF9
:1002500084B58F7DFBCF3E2BDACFCF93DF9390E039
:10026000FC01E655FF4F249184589F4FFC01849177
:100270008823C9F090E0880F991FFC01E859FF4FCF
:10028000A591B491FC01EE58FF4FC591D491611135
:100290000DC09FB7F8948C91209582238C93888110
:1002A000282328839FBFDF91CF910895623051F4B6
:1002B0009FB7F8943C91822F809583238C93E8819B
:1002C0002E2BEFCF8FB7F894EC912E2B2C938FBF62
:1002D000EACF1F93CF93DF93182FEB0161E00E94C9
:1002E0002D01209739F460E0812FDF91CF911F918C
:1002F0000C94E100CF3FD10511F461E0F5CFE12F7F
:10030000F0E0ED56FF4FE491E43031F140F4E2309B
:10031000B1F0E330E1F0C038D1057CF7E4CFE8304C
:1003200029F1E93059F1E530B1F780918000806220
:1003300080938000D0938B00C0938A0004C084B562
:10034000806884BDC7BDDF91CF911F91089584B5AA
:10035000806284BDC8BDF7CF8091800080688093A3
:100360008000D0938900C0938800EDCF8091B000C9
:1003700080688093B000C093B300E5CF8091B00057
:1003800080628093B000C093B400DDCF883020F04D
:100390008D3008F48DE08E508770806480937C00EF
:1003A00080917A00806480937A0080917A0086FD43
:1003B000FCCF809178009091790008955F926F92C0
:1003C0007F928F929F92AF92BF92CF92DF92EF92E5
:1003D000FF920F931F93CF93DF933B016A01790143
:1003E00023B159B050929A0427E8A22E24E0B22EED
:1003F000EC014C0138E0830E911CF50181915F0105
:100400000E94C601899399938C169D06B1F7E091DD
:100410008F040E2E000CFF0BE655FF4FE491E521F3
:1004200081E009F480E0F3018083809190040E94D0
:10043000C60121E08D3B924008F420E0F6012083C4
:100440008091990491E0980F90939904823049F437
:10045000809191040E94C601F701918380831092DC
:100460009904E09195040E2E000CFF0BE655FF4F0A
:10047000E491E52181E009F480E0F8018083F60150
:10048000808170E060E0882311F068EC70E080917A
:1004900093040E946901F7016081718176956795E7
:1004A0007695679590E080E00E944E0A20E030E06B
:1004B0004FE753E40E94AD096B017C01AC019B0145
:1004C0000E94050BA70196010E94050B20E030E079
:1004D0004FE753E40E94050B0E941F0A70E08091D1
:1004E0009404DF91CF911F910F91FF90EF90DF90D7
:1004F000CF90BF90AF909F908F907F906F905F90C4
:100500000C9469012F923F924F925F926F927F926B
:100510008F929F92AF92BF92CF92DF92EF92FF9213
:100520000F931F93CF93DF9300D000D0CDB7DEB7EA
:100530009C838B831B015A834983FC0180819181B9
:10054000A281B381181619061A061B060CF089C081
:10055000FA0180819181A281B381892B8A2B8B2B17
:1005600009F48EC0F10180819181A281B381E9817A
:10057000FA8180839183A283B383EB81FC81C08065
:10058000D180E280F380C701B6012DE133EF41E075
:1005900050E00E94D80849015A0163EE7CE08EEFDA
:1005A0009FEF0E94B4089B01AC012C0D3D1D4E1D18
:1005B0005F1DA7EAB1E40E94F7086B017C01ACEE75
:1005C000B4EFA50194010E940509C60ED71EE81ECE
:1005D000F91EF7FCC2C0EB81FC81C082D182E282AD
:1005E000F382E981FA81608171818281938120E0C7
:1005F00030E040E054E00E94D808F901EE0FFF1F00
:10060000EE0FFF1F2E0E3F1EF10180819181A2810E
:10061000B381E981FA8180839183A283B383EB81E3
:10062000FC8180819181A281B381F10180839183DA
:10063000A283B3830F900F900F900F90DF91CF9113
:100640001F910F91FF90EF90DF90CF90BF90AF90F0
:100650009F908F907F906F905F904F903F902F90E2
:1006600008950097A105B10509F066C081E090E00A
:10067000A0E0B0E0EB81FC8180839183A283B3830F
:10068000810104561F4F97E2892E912CA12CB12C89
:10069000EB81FC81C080D180E280F380C701B6018C
:1006A0002DE133EF41E050E00E94D80829013A01E2
:1006B00063EE7CE08EEF9FEF0E94B4089B01AC01DB
:1006C0002C0D3D1D4E1D5F1DA7EAB1E40E94F708E9
:1006D0006B017C01ACEEB4EFA30192010E9405090D
:1006E000C60ED71EE81EF91EF7FC30C0EB81FC8158
:1006F000C082D182E282F382F0E28F169104A104DB
:10070000B1045CF4EB81FC8180819181A281B38191
:10071000F80180839183A283B383F1E08F1A91085B
:10072000A108B108045011098FEF88169806A80691
:10073000B80609F0ADCF16CFB7FFA2CFB095A09500
:10074000909581959F4FAF4FBF4F94CFF1E0CF1A57
:10075000D108E108F0E8FF0AC9CFC701B60161502E
:10076000710981099048EB81FC81608371838283E8
:10077000938337CF0F931F93CF93DF938C01CB01DC
:10078000F8011482158216821782E80128969801D2
:1007900028573F4FBE011992199219921992C21708
:1007A000D307C9F7B0E0A0E0B095A09590958195EA
:1007B0009F4FAF4FBF4F88839983AA83BB83A80104
:1007C0004C5F5F4FCE010E948202888199819370B5
:1007D000F80191838083128281E08383DF91CF913E
:1007E0001F910F9108951F920F920FB60F9211242F
:1007F0002F933F938F939F93AF93BF938091C603A3
:100800009091C703A091C803B091C9033091C5036B
:1008100023E0230F2D3768F126E8230F0296A11D50
:10082000B11D2093C5038093C6039093C703A09383
:10083000C803B093C9038091C1039091C203A091F2
:10084000C303B091C4030196A11DB11D8093C103E0
:100850009093C203A093C303B093C403BF91AF911D
:100860009F918F913F912F910F900FBE0F901F90EE
:1008700018950196A11DB11DD4CFCF93DF93CDB7AD
:10088000DEB7A8970FB6F894DEBF0FBECDBF789441
:1008900084B5836084BD85B5836085BD80916E001D
:1008A000816080936E0082E080938100809181005E
:1008B00081608093810080918000816080938000BE
:1008C0008091B10084608093B1008091B00081601C
:1008D0008093B00087E880937A001092C10000E016
:1008E00011E0E4E0EE2EE1E0FE2E60E0F8018191FF
:1008F0008F010E942D0161E0F80183810E942D018A
:10090000E016F10691F762E082E00E942D0160E0BE
:1009100081E10E942D0160E082E10E942D0161E0F1
:1009200083E00E942D0161E086E00E942D0161E0DC
:1009300085E00E942D0160E087E00E942D0161E0CA
:100940008DE00E942D0161E08BE00E942D0161E0AD
:1009500089E00E942D0183E1E0E0F1E0DE011196E3
:1009600001900D928A95E1F783E1FE013196A7E8A7
:10097000B4E001900D928A95E1F774E0C72ED12C76
:10098000F12CE12C5E01FCE1AF0EB11C8E01025E88
:100990001F4F9501AE01415E5F4FBE01605E7F4F0C
:1009A000CE0144960E94DE01FE017496EE0CFF1CFF
:1009B0008191919181709927E82AF92AAE16BF0694
:1009C000A9F721E0C21AD10809F7F092AE03E0922C
:1009D000AD0384E191E09093CB038093CA0310921E
:1009E000DC0383E090E09093E0038093DF030CEB63
:1009F00012E01093DE030093DD0389EB92E0909305
:100A0000E2038093E1038FEB92E09093E403809301
:100A1000E3031092E6031092E7031092E8031092AA
:100A2000E9031092E5031092ED031092EC0388EEB7
:100A300093E09093EB038093EA03B7018EEE93E08B
:100A40000E94BA0389E190E09093EB038093EA035C
:100A500084E080937A048FEF93E090937C048093FA
:100A60007B0410937E0400937D0483E080937F04D5
:100A7000F0928104E09280041092820486E690E075
:100A8000909384048093830488E993E09093860490
:100A9000809385045AECA52E53E0B52ED12CC12CA1
:100AA00022E0A20EB11C30E9C31632E0D30609F0F1
:100AB00084C161E0C7010E948000FF24F39439E003
:100AC000E32E4BE0742E04EB13E025EB33E047EB11
:100AD00053E068EB73E089EB93E00E94DE012FB7EF
:100AE000F8948091C6039091C703A091C803B09178
:100AF000C9032FBF9093B3038093B2032091B8032F
:100B000011E0213009F010E03091B103311121C022
:100B10002130F9F42091AF033091B0032F5F3F4FA4
:100B20003093B0032093AF034091AD035091AE03D7
:100B3000840F951F65E4629FA001639F500D1124EF
:100B4000840F951F909381048093800460E00E943D
:100B500080001093B1038091B70311E018160CF0D8
:100B600010E018164CF4609182046F258091800487
:100B7000909181040E948000109382040091B5033B
:100B80001091B6030333110508F04FC1C801880F57
:100B9000991F080F191F90907A04C090CA03D09033
:100BA000CB03E7E9CE0ED11CB12CA12CA9140CF477
:100BB00072C160918304709184040617170708F0CE
:100BC00085C1709EC001719E900D11240E94C408C1
:100BD00090E080E00E944E0A9B01AC010E943C091B
:100BE00020E030E04AE754E40E94AD096093E60358
:100BF0007093E7038093E8039093E9030091EC037B
:100C00001091ED030D5F1F4F1093ED030093EC0364
:100C1000C090EA03D090EB0320E030E040E450E4E1
:100C20000E94050B20E030E040E85EE30E94050BE7
:100C30004B015C018091F00381117CC142EF53E0D4
:100C400066EF73E086E794E00E948202809176046A
:100C50009091770493709093EF038093EE036091EB
:100C6000EE037091EF0390E080E00E944E0A20E0D6
:100C700030E040E85AE30E94050B9B01AC01C5013E
:100C8000B4010E94000B181664F4C016D10648F493
:100C90008091E5031092ED031092EC038F25809371
:100CA000E5038091E503882309F451C180917B0419
:100CB00090917C049093A8038093A70329EA33E0E2
:100CC00038A72FA38CEC93E09CA38BA3E9EBF3E074
:100CD000FAA3E9A3912C812C3EA32DA3D12CC12CE6
:100CE00080917A04082E000C990BC816D9060CF4D2
:100CF00031C18091B403813061F48091A903809364
:100D0000A4038091AA038093A5038091AB038093F1
:100D1000A6038BE894E0A4EAB3E020E0FC01419153
:100D2000CF01EFA1F8A53191F8A7EFA3E42F042E8E
:100D3000000CFF0BE655FF4F48300CF0E7C13323A2
:100D400009F4DFC1E4913BB1E32BEBB9233099F017
:100D5000FC0142853C91E42F042E000CFF0BE6556C
:100D6000FF4F48300CF0E3C1332309F4DBC1E491B9
:100D70003BB1E32BEBB911962F5F243079F620912C
:100D800092048091A7039091A803E22F022E000CF9
:100D9000FF0BE655FF4F28300CF0DAC1892B09F420
:100DA000D2C1E4918BB1E82BEBB920E030E0232BEA
:100DB00009F489CE0E94000082CE60918004709177
:100DC000810480917F0490E08090CA039090CB03CF
:100DD0008C0C9D1CF4011082948383831283018305
:100DE0009801281B390B3683258384549D4F9087A7
:100DF0008783C4010B960E94BA03F401E956FF4FA2
:100E0000108211821282138234961082148213820D
:100E1000128301831683058310870783F5011182EE
:100E20001082F4EACF0ED11C3BCE0138110518F424
:100E3000000F111FB0CE0F3F110509F078F4B80173
:100E400090E080E00E944E0A24EF3DEF44EB5FE328
:100E50000E94050B0E941F0A8B019DCE011582E0A6
:100E6000180750F4B80190E080E00E944E0A2DE38C
:100E70003AE047E95FE3ECCF011593E0190708F08A
:100E80008ACEB80190E080E00E944E0A23EC35EF54
:100E900048E85FE3DDCF20E030E040E85FE3F601C3
:100EA00060817181828193810E94A809882339F031
:100EB000F501EE0FFF1FE653FC4F13830283FFEF94
:100EC000AF1ABF0A24EAC20ED11C70CE80918504ED
:100ED0009091860408171907B0F4061B170BFC0144
:100EE000E61BF70BBF019F01201B310B729EC00157
:100EF000739E900D1124E09E9001E19E300D11240F
:100F0000820F931F63CE081B190B60917B047091B5
:100F10007C04681B790B9B01201B310BE29EC001F6
:100F2000E39E900D1124FFE0F09F9001F19F300DA2
:100F30001124E6CF8091F1038F258093F10388235C
:100F400019F08FEF93E087CE90E080E084CE90E0C0
:100F500080E0B0CE0197512C412CC816D90624F45C
:100F6000C6018C559C4F2C010091CA031091CB03F4
:100F7000080D191DE9A1FAA181919191FAA3E9A3A4
:100F8000F801208112160CF0A3C021E045815681A2
:100F90004817590708F020E0F8012083F801608025
:100FA0003324339416140CF0312C5801F7E9AF0EAA
:100FB000B11C20E030E0A901F501608171818281DE
:100FC00093810E94A809212C811101C0232C632D3B
:100FD00070E090E080E00E944E0AF501608371832A
:100FE000828393832220C1F0F8018585811178C026
:100FF000A801415F5F4FB8016D5E7F4F5801F3E973
:10100000AF0EB11CC5010E948202F5018081918161
:101010009370F80194878387F80143855485EBA189
:10102000FCA181919191FCA3EBA32FEF33E0281B4E
:10103000390BC90137FF02C090E080E0811534E030
:10104000930714F08FEF93E0F801E556FF4F92837A
:10105000818323813481BC01621B730B768365839A
:10106000820F931F90878783208112160CF043C054
:1010700081E06417750708F080E080832081022EEC
:10108000000C330B862D660C990B70E060E0211587
:10109000310509F0BC0141E0672B09F440E0EDA106
:1010A000FEA14193FEA3EDA34114510451F0232B63
:1010B00011F090E080E021E0892B09F420E0F201BA
:1010C0002083FFEFCF1ADF0A24EA820E911C08CE9C
:1010D000278130852817390708F060CFF0825ECF6E
:1010E00086858F258687882319F08FEF93E091CF2F
:1010F00090E080E08ECF8417950708F0BFCFF08294
:10110000BDCFE4913BB1E095E3231FCE332329F01B
:10111000E49135B1E32BE5B919CEE49135B1E09511
:10112000E323F9CFE4913BB1E095E32323CE3323CE
:1011300029F0E49135B1E32BE5B91DCEE49135B149
:10114000E095E323F9CFE4918BB1E095E8232CCE31
:10115000892B29F0E49185B1E82BE5B926CEE491FD
:1011600085B1E095E823F9CFDB018F939F930E942F
:10117000F708BF91AF91A29F800D911DA39F900D85
:10118000B29F900D11240895AA1BBB1B51E107C00B
:10119000AA1FBB1FA617B70710F0A61BB70B881F07
:1011A000991F5A95A9F780959095BC01CD01089596
:1011B000052E97FB1EF400940E94EF0857FD07D000
:1011C0000E940A0907FC03D04EF40C94EF085095D6
:1011D0004095309521953F4F4F4F5F4F0895909523
:1011E0008095709561957F4F8F4F9F4F08950E9416
:1011F0002C09A59F900DB49F900DA49F800D911D6B
:1012000011240895B7FF0C94F7080E94F708821B79
:10121000930B0895A1E21A2EAA1BBB1BFD010DC062
:10122000AA1FBB1FEE1FFF1FA217B307E407F50796
:1012300020F0A21BB30BE40BF50B661F771F881F72
:10124000991F1A9469F760957095809590959B0108
:10125000AC01BD01CF010895A29FB001B39FC001B1
:10126000A39F700D811D1124911DB29F700D811DD2
:101270001124911D08955058BB27AA270E94530995
:101280000C94C60A0E94B80A38F00E94BF0A20F0E7
:1012900039F49F3F19F426F40C94B50A0EF4E09546
:1012A000E7FB0C94AF0AE92F0E94D70A58F3BA174C
:1012B000620773078407950720F079F4A6F50C946C
:1012C000F90A0EF4E0950B2EBA2FA02D0B01B901EF
:1012D00090010C01CA01A0011124FF27591B99F0AC
:1012E000593F50F4503E68F11A16F040A22F232FB8
:1012F000342F4427585FF3CF469537952795A79508
:10130000F0405395C9F77EF41F16BA0B620B730BAE
:10131000840BBAF09150A1F0FF0FBB1F661F771F1F
:10132000881FC2F70EC0BA0F621F731F841F48F4D4
:10133000879577956795B795F7959E3F08F0B0CF5D
:101340009395880F08F09927EE0F97958795089544
:101350000E948B0A08F481E008950E94C1090C9450
:10136000C60A0E94BF0A58F00E94B80A40F029F449
:101370005F3F29F00C94AF0A51110C94FA0A0C94B7
:10138000B50A0E94D70A68F39923B1F3552391F364
:10139000951B550BBB27AA2762177307840738F0E4
:1013A0009F5F5F4F220F331F441FAA1FA9F335D041
:1013B0000E2E3AF0E0E832D091505040E695001CF5
:1013C000CAF72BD0FE2F29D0660F771F881FBB1FAF
:1013D000261737074807AB07B0E809F0BB0B802D8D
:1013E000BF01FF2793585F4F3AF09E3F510578F0B9
:1013F0000C94AF0A0C94FA0A5F3FE4F3983ED4F3DE
:10140000869577956795B795F7959F5FC9F7880F8C
:10141000911D9695879597F90895E1E0660F771FDE
:10142000881FBB1F621773078407BA0720F0621B6F
:10143000730B840BBA0BEE1F88F7E09508950E949A
:10144000DF0A88F09F5798F0B92F9927B751B0F06D
:10145000E1F0660F771F881F991F1AF0BA95C9F738
:1014600014C0B13091F00E94F90AB1E008950C94D3
:10147000F90A672F782F8827B85F39F0B93FCCF386
:10148000869577956795B395D9F73EF490958095B5
:10149000709561957F4F8F4F9F4F0895E89409C0D5
:1014A00097FB3EF490958095709561957F4F8F4F97
:1014B0009F4F9923A9F0F92F96E9BB279395F695AD
:1014C000879577956795B795F111F8CFFAF4BB0F2B
:1014D00011F460FF1BC06F5F7F4F8F4F9F4F16C08F
:1014E000882311F096E911C0772321F09EE8872F19
:1014F000762F05C0662371F096E8862F70E060E0D5
:101500002AF09A95660F771F881FDAF7880F96954D
:10151000879597F90895990F0008550FAA0BE0E8F1
:10152000FEEF16161706E807F907C0F012161306A5
:10153000E407F50798F0621B730B840B950B39F4E5
:101540000A2661F0232B242B252B21F408950A264B
:1015500009F4A140A6958FEF811D811D089597F98B
:101560009F6780E870E060E008959FEF80EC089549
:1015700000240A9416161706180609060895002472
:101580000A9412161306140605060895092E0394EC
:10159000000C11F4882352F0BB0F40F4BF2B11F460
:1015A00060FF04C06F5F7F4F8F4F9F4F089557FDBF
:1015B0009058440F551F59F05F3F71F04795880FC1
:1015C00097FB991F61F09F3F79F087950895121658
:1015D00013061406551FF2CF4695F1DF08C0161604
:1015E00017061806991FF1CF8695710561050894B5
:1015F0000895E894BB2766277727CB0197F90895CC
:101600000E948B0A08F48FEF08950E94180B0C9427
:10161000C60A0E94B80A38F00E94BF0A20F095233B
:1016200011F00C94AF0A0C94B50A11240C94FA0A28
:101630000E94D70A70F3959FC1F3950F50E0551F94
:10164000629FF001729FBB27F00DB11D639FAA2717
:10165000F00DB11DAA1F649F6627B00DA11D661F66
:10166000829F2227B00DA11D621F739FB00DA11D87
:10167000621F839FA00D611D221F749F3327A00D41
:10168000611D231F849F600D211D822F762F6A2FDD
:1016900011249F5750409AF0F1F088234AF0EE0F42
:1016A000FF1FBB1F661F771F881F91505040A9F76F
:1016B0009E3F510580F00C94AF0A0C94FA0A5F3FEC
:1016C000E4F3983ED4F3869577956795B795F795AB
:1016D000E7959F5FC1F7FE2B880F911D9695879523
:0816E00097F90895F894FFCF7B
:1016E800130E0F10040C0A08021112030605070D49
:0416F8000B090000DA
:00000001FF
